{
  "contractName": "degree",
  "abi": [
    {
      "inputs": [
        {
          "internalType": "string",
          "name": "reg_no1",
          "type": "string"
        },
        {
          "internalType": "string",
          "name": "name1",
          "type": "string"
        },
        {
          "internalType": "string",
          "name": "father_name1",
          "type": "string"
        },
        {
          "internalType": "string",
          "name": "cgpa1",
          "type": "string"
        }
      ],
      "stateMutability": "nonpayable",
      "type": "constructor"
    },
    {
      "inputs": [],
      "name": "cgpa",
      "outputs": [
        {
          "internalType": "string",
          "name": "",
          "type": "string"
        }
      ],
      "stateMutability": "view",
      "type": "function"
    },
    {
      "inputs": [],
      "name": "father_Name",
      "outputs": [
        {
          "internalType": "string",
          "name": "",
          "type": "string"
        }
      ],
      "stateMutability": "view",
      "type": "function"
    },
    {
      "inputs": [],
      "name": "name",
      "outputs": [
        {
          "internalType": "string",
          "name": "",
          "type": "string"
        }
      ],
      "stateMutability": "view",
      "type": "function"
    },
    {
      "inputs": [],
      "name": "reg_no",
      "outputs": [
        {
          "internalType": "string",
          "name": "",
          "type": "string"
        }
      ],
      "stateMutability": "view",
      "type": "function"
    },
    {
      "inputs": [
        {
          "internalType": "string",
          "name": "course_code1",
          "type": "string"
        },
        {
          "internalType": "string",
          "name": "course_name1",
          "type": "string"
        },
        {
          "internalType": "uint8",
          "name": "credit_hours1",
          "type": "uint8"
        },
        {
          "internalType": "string",
          "name": "grade1",
          "type": "string"
        }
      ],
      "name": "addsubject",
      "outputs": [],
      "stateMutability": "nonpayable",
      "type": "function"
    },
    {
      "inputs": [],
      "name": "getsubjects",
      "outputs": [
        {
          "components": [
            {
              "internalType": "string",
              "name": "course_code",
              "type": "string"
            },
            {
              "internalType": "string",
              "name": "course_name",
              "type": "string"
            },
            {
              "internalType": "uint8",
              "name": "credit_hours",
              "type": "uint8"
            },
            {
              "internalType": "string",
              "name": "grade",
              "type": "string"
            }
          ],
          "internalType": "struct degree.subject[]",
          "name": "",
          "type": "tuple[]"
        }
      ],
      "stateMutability": "view",
      "type": "function"
    }
  ],
  "bytecode": "0x608060405234801562000010575f80fd5b50604051620013bd380380620013bd83398181016040528101906200003691906200020c565b835f90816200004691906200052e565b5082600190816200005891906200052e565b5081600290816200006a91906200052e565b5080600390816200007c91906200052e565b505050505062000612565b5f604051905090565b5f80fd5b5f80fd5b5f80fd5b5f80fd5b5f601f19601f8301169050919050565b7f4e487b71000000000000000000000000000000000000000000000000000000005f52604160045260245ffd5b620000e882620000a0565b810181811067ffffffffffffffff821117156200010a5762000109620000b0565b5b80604052505050565b5f6200011e62000087565b90506200012c8282620000dd565b919050565b5f67ffffffffffffffff8211156200014e576200014d620000b0565b5b6200015982620000a0565b9050602081019050919050565b5f5b838110156200018557808201518184015260208101905062000168565b5f8484015250505050565b5f620001a6620001a08462000131565b62000113565b905082815260208101848484011115620001c557620001c46200009c565b5b620001d284828562000166565b509392505050565b5f82601f830112620001f157620001f062000098565b5b81516200020384826020860162000190565b91505092915050565b5f805f806080858703121562000227576200022662000090565b5b5f85015167ffffffffffffffff81111562000247576200024662000094565b5b6200025587828801620001da565b945050602085015167ffffffffffffffff81111562000279576200027862000094565b5b6200028787828801620001da565b935050604085015167ffffffffffffffff811115620002ab57620002aa62000094565b5b620002b987828801620001da565b925050606085015167ffffffffffffffff811115620002dd57620002dc62000094565b5b620002eb87828801620001da565b91505092959194509250565b5f81519050919050565b7f4e487b71000000000000000000000000000000000000000000000000000000005f52602260045260245ffd5b5f60028204905060018216806200034657607f821691505b6020821081036200035c576200035b62000301565b5b50919050565b5f819050815f5260205f209050919050565b5f6020601f8301049050919050565b5f82821b905092915050565b5f60088302620003c07fffffffffffffffffffffffffffffffffffffffffffffffffffffffffffffffff8262000383565b620003cc868362000383565b95508019841693508086168417925050509392505050565b5f819050919050565b5f819050919050565b5f62000416620004106200040a84620003e4565b620003ed565b620003e4565b9050919050565b5f819050919050565b6200043183620003f6565b6200044962000440826200041d565b8484546200038f565b825550505050565b5f90565b6200045f62000451565b6200046c81848462000426565b505050565b5b818110156200049357620004875f8262000455565b60018101905062000472565b5050565b601f821115620004e257620004ac8162000362565b620004b78462000374565b81016020851015620004c7578190505b620004df620004d68562000374565b83018262000471565b50505b505050565b5f82821c905092915050565b5f620005045f1984600802620004e7565b1980831691505092915050565b5f6200051e8383620004f3565b9150826002028217905092915050565b6200053982620002f7565b67ffffffffffffffff811115620005555762000554620000b0565b5b6200056182546200032e565b6200056e82828562000497565b5f60209050601f831160018114620005a4575f84156200058f578287015190505b6200059b858262000511565b8655506200060a565b601f198416620005b48662000362565b5f5b82811015620005dd57848901518255600182019150602085019450602081019050620005b6565b86831015620005fd5784890151620005f9601f891682620004f3565b8355505b6001600288020188555050505b505050505050565b610d9d80620006205f395ff3fe608060405234801561000f575f80fd5b5060043610610060575f3560e01c806306fdde03146100645780635c35527c146100825780637dc72a7b1461009e5780638949d829146100bc578063d4669eaf146100da578063e523cd15146100f8575b5f80fd5b61006c610116565b60405161007991906106aa565b60405180910390f35b61009c6004803603810190610097919061083d565b6101a2565b005b6100a6610256565b6040516100b39190610a75565b60405180910390f35b6100c461047d565b6040516100d191906106aa565b60405180910390f35b6100e2610509565b6040516100ef91906106aa565b60405180910390f35b610100610595565b60405161010d91906106aa565b60405180910390f35b6001805461012390610ac2565b80601f016020809104026020016040519081016040528092919081815260200182805461014f90610ac2565b801561019a5780601f106101715761010080835404028352916020019161019a565b820191905f5260205f20905b81548152906001019060200180831161017d57829003601f168201915b505050505081565b600460405180608001604052808681526020018581526020018460ff16815260200183815250908060018154018082558091505060019003905f5260205f2090600402015f909190919091505f820151815f0190816102019190610c98565b5060208201518160010190816102179190610c98565b506040820151816002015f6101000a81548160ff021916908360ff160217905550606082015181600301908161024d9190610c98565b50505050505050565b60606004805480602002602001604051908101604052809291908181526020015f905b82821015610474578382905f5260205f2090600402016040518060800160405290815f820180546102a990610ac2565b80601f01602080910402602001604051908101604052809291908181526020018280546102d590610ac2565b80156103205780601f106102f757610100808354040283529160200191610320565b820191905f5260205f20905b81548152906001019060200180831161030357829003601f168201915b5050505050815260200160018201805461033990610ac2565b80601f016020809104026020016040519081016040528092919081815260200182805461036590610ac2565b80156103b05780601f10610387576101008083540402835291602001916103b0565b820191905f5260205f20905b81548152906001019060200180831161039357829003601f168201915b50505050508152602001600282015f9054906101000a900460ff1660ff1660ff1681526020016003820180546103e590610ac2565b80601f016020809104026020016040519081016040528092919081815260200182805461041190610ac2565b801561045c5780601f106104335761010080835404028352916020019161045c565b820191905f5260205f20905b81548152906001019060200180831161043f57829003601f168201915b50505050508152505081526020019060010190610279565b50505050905090565b6003805461048a90610ac2565b80601f01602080910402602001604051908101604052809291908181526020018280546104b690610ac2565b80156105015780601f106104d857610100808354040283529160200191610501565b820191905f5260205f20905b8154815290600101906020018083116104e457829003601f168201915b505050505081565b6002805461051690610ac2565b80601f016020809104026020016040519081016040528092919081815260200182805461054290610ac2565b801561058d5780601f106105645761010080835404028352916020019161058d565b820191905f5260205f20905b81548152906001019060200180831161057057829003601f168201915b505050505081565b5f80546105a190610ac2565b80601f01602080910402602001604051908101604052809291908181526020018280546105cd90610ac2565b80156106185780601f106105ef57610100808354040283529160200191610618565b820191905f5260205f20905b8154815290600101906020018083116105fb57829003601f168201915b505050505081565b5f81519050919050565b5f82825260208201905092915050565b5f5b8381101561065757808201518184015260208101905061063c565b5f8484015250505050565b5f601f19601f8301169050919050565b5f61067c82610620565b610686818561062a565b935061069681856020860161063a565b61069f81610662565b840191505092915050565b5f6020820190508181035f8301526106c28184610672565b905092915050565b5f604051905090565b5f80fd5b5f80fd5b5f80fd5b5f80fd5b7f4e487b71000000000000000000000000000000000000000000000000000000005f52604160045260245ffd5b61071982610662565b810181811067ffffffffffffffff82111715610738576107376106e3565b5b80604052505050565b5f61074a6106ca565b90506107568282610710565b919050565b5f67ffffffffffffffff821115610775576107746106e3565b5b61077e82610662565b9050602081019050919050565b828183375f83830152505050565b5f6107ab6107a68461075b565b610741565b9050828152602081018484840111156107c7576107c66106df565b5b6107d284828561078b565b509392505050565b5f82601f8301126107ee576107ed6106db565b5b81356107fe848260208601610799565b91505092915050565b5f60ff82169050919050565b61081c81610807565b8114610826575f80fd5b50565b5f8135905061083781610813565b92915050565b5f805f8060808587031215610855576108546106d3565b5b5f85013567ffffffffffffffff811115610872576108716106d7565b5b61087e878288016107da565b945050602085013567ffffffffffffffff81111561089f5761089e6106d7565b5b6108ab878288016107da565b93505060406108bc87828801610829565b925050606085013567ffffffffffffffff8111156108dd576108dc6106d7565b5b6108e9878288016107da565b91505092959194509250565b5f81519050919050565b5f82825260208201905092915050565b5f819050602082019050919050565b5f82825260208201905092915050565b5f61093882610620565b610942818561091e565b935061095281856020860161063a565b61095b81610662565b840191505092915050565b61096f81610807565b82525050565b5f608083015f8301518482035f86015261098f828261092e565b915050602083015184820360208601526109a9828261092e565b91505060408301516109be6040860182610966565b50606083015184820360608601526109d6828261092e565b9150508091505092915050565b5f6109ee8383610975565b905092915050565b5f602082019050919050565b5f610a0c826108f5565b610a1681856108ff565b935083602082028501610a288561090f565b805f5b85811015610a635784840389528151610a4485826109e3565b9450610a4f836109f6565b925060208a01995050600181019050610a2b565b50829750879550505050505092915050565b5f6020820190508181035f830152610a8d8184610a02565b905092915050565b7f4e487b71000000000000000000000000000000000000000000000000000000005f52602260045260245ffd5b5f6002820490506001821680610ad957607f821691505b602082108103610aec57610aeb610a95565b5b50919050565b5f819050815f5260205f209050919050565b5f6020601f8301049050919050565b5f82821b905092915050565b5f60088302610b4e7fffffffffffffffffffffffffffffffffffffffffffffffffffffffffffffffff82610b13565b610b588683610b13565b95508019841693508086168417925050509392505050565b5f819050919050565b5f819050919050565b5f610b9c610b97610b9284610b70565b610b79565b610b70565b9050919050565b5f819050919050565b610bb583610b82565b610bc9610bc182610ba3565b848454610b1f565b825550505050565b5f90565b610bdd610bd1565b610be8818484610bac565b505050565b5b81811015610c0b57610c005f82610bd5565b600181019050610bee565b5050565b601f821115610c5057610c2181610af2565b610c2a84610b04565b81016020851015610c39578190505b610c4d610c4585610b04565b830182610bed565b50505b505050565b5f82821c905092915050565b5f610c705f1984600802610c55565b1980831691505092915050565b5f610c888383610c61565b9150826002028217905092915050565b610ca182610620565b67ffffffffffffffff811115610cba57610cb96106e3565b5b610cc48254610ac2565b610ccf828285610c0f565b5f60209050601f831160018114610d00575f8415610cee578287015190505b610cf88582610c7d565b865550610d5f565b601f198416610d0e86610af2565b5f5b82811015610d3557848901518255600182019150602085019450602081019050610d10565b86831015610d525784890151610d4e601f891682610c61565b8355505b6001600288020188555050505b50505050505056fea2646970667358221220106855ea9483a5a0616a6b04c7501a3277dd60f4c3d30a7172b79ad14f8e473364736f6c63430008140033",
  "immutableReferences": {},
  "source": "pragma solidity >0.8.0;\r\npragma experimental ABIEncoderV2;\r\n\r\ncontract degree\r\n{\r\n    string public reg_no;\r\n    string public name;\r\n    string public father_Name;\r\n    string public cgpa;\r\n    struct subject\r\n    {\r\n        string course_code;\r\n        string course_name;\r\n        uint8 credit_hours;\r\n        string grade;\r\n    }\r\n    subject[] courses;\r\n    constructor (string memory reg_no1, string memory name1, string memory father_name1, string memory cgpa1) public   \r\n    {\r\n         reg_no = reg_no1;\r\n         name=name1;\r\n         father_Name=father_name1;\r\n         cgpa=cgpa1;\r\n    }\r\n\r\n    function addsubject(string memory course_code1, string memory course_name1, uint8 credit_hours1, string memory grade1) public\r\n    {\r\n        courses.push(subject(course_code1, course_name1, credit_hours1, grade1));\r\n    }\r\n\r\n    function getsubjects() public view returns(subject[] memory)\r\n    {\r\n        return courses;\r\n    }\r\n\r\n}\r\n\r\n\r\n",
  "sourcePath": "D:\\UCP\\FYP\\Phase 3\\temp\\mak1821.github.io\\contracts\\degree.sol",
  "compiler": {
    "name": "solc",
    "version": "0.8.20+commit.a1b79de6.Emscripten.clang"
  },
  "schemaVersion": "3.4.14",
  "updatedAt": "2023-06-04T16:44:30.912Z",
  "devdoc": {
    "kind": "dev",
    "methods": {},
    "version": 1
  },
  "userdoc": {
    "kind": "user",
    "methods": {},
    "version": 1
  }
}